:060000000A128A11142906
:10000800F000030EF1000B1810200B191820710EC8
:100018008300F00E700E090003138312061C55218D
:10002800861C59210B10080003138312D930810054
:0E0038000B11A00A2008643C03196221080085
:100200008A010A140F3982073F3406345B344F34B5
:1002100066346D347D3407347F346F3477347C3406
:1002200039345E34793471343A211D21242131214D
:100230004F210313831267211B29031383160F1702
:100240008F160F120F1408000313831681128111E9
:1002500001158114011403138312D93081000B118D
:10026000080003138316161496140313831206084A
:100270000B100800031783168801890103138316E6
:1002800085010614861487018801811315149514BD
:1002900003138312850186018701880108008B17EB
:1002A0008B150B108B160B110800850A051A85019A
:1002B00008008503851B5D210800051285120513C2
:1002C00085130800A001A10A211AA1010800210834
:1002D0000021870021080A3C03196F210800A101B1
:1002E000A20A220800218800762108002208063C84
:0602F0000319A201080041
:04400E00D420FF3F7C
:00000001FF
